:020000040800F2
:10000000A8060020B5010008BD010008BF010008D6
:10001000C1010008C3010008C5010008000000007C
:10002000000000000000000000000000C701000800
:10003000C901000800000000930800080906000834
:10004000CF010008CF010008CF010008CF01000850
:10005000CF010008CF010008CF010008CF01000840
:10006000CF010008CF010008CF010008CF01000830
:10007000CF010008CF010008CF010008CF01000820
:10008000CF010008CF010008CF010008CF01000810
:10009000CF010008CF010008CF010008CF01000800
:1000A000CF010008CF010008CF010008CF010008F0
:1000B000CF010008CF010008CF010008CF010008E0
:1000C000CF010008CF010008CF010008CF010008D0
:1000D000CF010008CF010008CF010008CF010008C0
:1000E000CF010008CF010008CF01000800F002F89E
:1000F00000F050F814A696E8000CB244B344DA4578
:1001000001D100F047F8BAE80F000FA696E83000DA
:10011000A5EB040504EB0607AAEB0704A7F101070A
:100120004FEA15154FEA3414A4F10104AC4201D38F
:1001300000F030F813F0010F18BFFB1A43F0010371
:1001400000F001F8DBE71847780700009807000087
:10015000103A24BF78C878C1FAD8520724BF30C8F3
:1001600030C144BF04680C60704700007047000055
:100170000023002400250026103A28BF78C1FBD8B0
:10018000520728BF30C148BF0B6070471FB51FBD65
:1001900010B510BD00F031F81146FFF7F7FF00F081
:1001A00057FB00F04FF803B4FFF7F2FF03BC00F079
:1001B00057F800000948804709480047FEE7FEE776
:1001C000FEE7FEE7FEE7FEE7FEE7FEE7FEE7FEE707
:1001D00004480549054A064B70470000110700080E
:1001E000ED000008A8000020A8060020A8020020BA
:1001F000A8020020704770477047754600F02CF841
:10020000AE4605006946534620F00700854618B003
:1002100020B5FFF7DDFFBDE820404FF000064FF0AE
:1002200000074FF000084FF0000BAC46ACE8C009E7
:10023000ACE8C009ACE8C009ACE8C00921F007018E
:100240008D46704710B50446AFF300802046BDE8E8
:100250001040FFF7A8BF00000048704708000020CA
:1002600001491820ABBEFEE72600020070470000DF
:1002700082B040F20200C2F2000001788DF807104F
:10028000007801308DF80600FFE79DF8060002288F
:100290001CDCFFE79DF8060000EB800140F26C00DB
:1002A000C2F2000000EB8100007940B9FFE79DF841
:1002B000060040F20201C2F20001087006E0FFE70A
:1002C0009DF8060001308DF80600DEE79DF8070076
:1002D00040F20201C2F200010978884225D1FFE70D
:1002E00001200090FFE7009840F20201C2F20001F5
:1002F0000978884218DAFFE7009800EB800140F2A5
:100300006C00C2F2000000EB8100007938B9FFE711
:10031000009840F20201C2F20001087004E0FFE719
:10032000009801300090DEE7FFE79DF8070040F2FB
:100330000201C2F200010978884207D1FFE740F2CA
:100340000201C2F2000100200870FFE702B070470E
:1003500080B582B00190019840F20202C2F2000220
:10036000117801EB810340F26C01C2F2000101EB54
:100370008303D860107800EB800001EB800301203C
:100380001871127802EB820201EB820200211161E6
:1003900000F048FA02B080BD40F20200C2F2000054
:1003A000007800EB800140F26C00C2F2000050F8CF
:1003B0002100704783B040F26C02C2F2000200924A
:1003C0004FF0202010600020107140F62101C0F68F
:1003D0000001916041F60041C2F2000151611076C6
:1003E00040F2E171C0F60001D16141F60001C2F2B4
:1003F0000001916282F82C0040F60101C0F6000174
:10040000116302908DF80700FFE79DF807000228AE
:1004100050DCFFE79DF8070000EB800140F26C0024
:10042000C2F2000050F821100291029A4FF0807140
:1004300011600299043902919DF8071001EB8101C6
:1004400000EB8100806802990860029804380290ED
:1004500002996FF0020008600298043802900020B0
:100460008DF80600FFE79DF806000C280DDCFFE77D
:10047000029900200860029804380290FFE79DF876
:10048000060001308DF80600EDE702980430029076
:1004900002989DF8071001EB810240F26C01C2F254
:1004A000000141F82200FFE79DF8070001308DF8B8
:1004B0000700AAE703B0704780B500F001F880BDDF
:1004C00084B000200390029041F20001C4F20201C6
:1004D000086840F480300860FFE741F20000C4F291
:1004E0000200006800F4003002900398013003908D
:1004F000FFE702990020019039B9FFE70398B0F5B2
:10050000A06018BF01200190FFE70198C0070028F4
:10051000E3D1FFE741F20000C4F20200006880036B
:10052000002803D5FFE70120029002E0002002909E
:10053000FFE70298012851D1FFE742F20001C4F21F
:100540000201086840F010000860086820F0070009
:100550000860086840F00200086041F20401C4F23B
:10056000020100910868086008680860086840F4A3
:1005700080600860086820F47C100860086840F417
:10058000E810086041F20001C4F20201086840F07E
:1005900080700860FFE741F20000C4F202000068CA
:1005A0008001002801D4FFE7F5E741F20401C4F21D
:1005B0000201086820F003000860086840F00200AB
:1005C0000860FFE741F20400C4F20200006800F096
:1005D0000C00082801D0FFE7F4E700E0FFE704B0D3
:1005E0007047000081B00090009840F20201C2F212
:1005F0000001097801EB810240F26C01C2F20001B6
:1006000041F8220001B0704780B582B000208DF81B
:100610000700FFE79DF80700022822DCFFE79DF8AE
:10062000070000EB800140F26C00C2F2000000EB1A
:100630008100C06870B1FFE79DF8070000EB800102
:1006400040F26C00C2F2000000EB81010869013049
:100650000861FFE7FFE79DF8070001308DF807000C
:10066000D8E701208DF80600FFE79DF80600022874
:1006700049DCFFE79DF8060040F20201C2F20001EA
:100680000978884201D1FFE737E09DF8060000EBCA
:10069000800140F26C00C2F2000000EB8100C068F3
:1006A00050B3FFE79DF8060000EB800140F26C00BC
:1006B000C2F2000000EB8100C168006988421BD1D2
:1006C000FFE79DF8060000EB800040F26C01C2F2EB
:1006D000000101EB8002002010719DF8062002EB62
:1006E000820201EB8202D0609DF8062002EB8202BA
:1006F00001EB82010861FFE7FFE79DF8060001308A
:100700008DF80600B1E7012000F08CF802B080BD42
:1007100080B541F20002C4F20202106840F001000C
:10072000106041F20401C4F2020108680023CFF610
:10073000FF031840086010684FF6FF73CFF6F663AA
:1007400018401060106820F480201060086820F4C1
:10075000FE00086041F20801C4F202014FF41F00DC
:100760000860FFF7A9FE4EF60851CEF200014FF0E7
:100770000060086080BD000082B00190019808B957
:10078000FFE72AE0019840F20401C2F2000108608C
:100790004EF21001CEF200010091086820F4803082
:1007A0000860086840F004000860086840F0020033
:1007B00008604EF21402CEF2000241F63F10C0F281
:1007C000010010604EF21802CEF20002002010600C
:1007D000086840F001000860FFE702B070470000C1
:1007E00080B5FFE740F26801C2F20001087880F0AE
:1007F0000100087041F28830FFF7AAFDF2E700001F
:1008000080B5FFE740F26901C2F20001087880F08C
:100810000100087041F28830FFF79AFDF2E700000E
:10082000FFE7FEE781B08DF803009DF8031040F26A
:100830000000C2F20000415C012000FA01F24EF615
:100840000451CEF2000108681043086001B07047FF
:1008500080B5FFF7AFFD41F60040C2F2000041F263
:100860000001C2F2000100F009F80120FFF784FF47
:10087000AFF30080FFF7B4FF002080BD81F308884C
:1008800080F30988EFF3148040F0020080F31488AD
:10089000704772B6EFF3098020E9F00F00B5FFF75B
:1008A000A1FEFFF7E5FCFFF777FD5DF804EBB0E88C
:1008B000F00F80F3098862B6704791E7A0E7000067
:1008C000E0080008000000200800000050010008B7
:1008D000E808000808000020A006000070010008D9
:0808E0001B1C010001000000D7
:04000005080001B539
:00000001FF
