:020000040800F2
:10000000200F0020C1010008C9010008CB01000831
:10001000CD010008CF010008D10100080000000058
:10002000000000000000000000000000D3010008F4
:10003000D5010008000000009301000865060008D3
:10004000DB010008DB010008DB010008DB01000820
:10005000DB010008DB0100086D040008DB0100087B
:10006000DB010008DB010008DB010008DB01000800
:10007000DB010008DB010008DB010008DB010008F0
:10008000DB010008DB010008DB010008DB010008E0
:10009000DB010008DB010008DB010008DB010008D0
:1000A000DB010008DB010008DB010008DB010008C0
:1000B000E1060008DB010008DB010008DB010008A5
:1000C000DB010008DB010008DB010008DB010008A0
:1000D000DB010008DB010008DB010008DB01000890
:1000E000DB010008DB010008DB01000800F002F87A
:1000F00000F030F80AA090E8000C82448344AAF192
:100100000107DA4501D100F025F8AFF2090EBAE88F
:100110000F0013F0010F18BFFB1A43F0010318473B
:10012000900C0000A00C00000023002400250026F5
:10013000103A28BF78C1FBD8520728BF30C148BF4A
:100140000B6070471FB50FBC00F038F80FB41FBD2F
:1001500010B510BD00F057F81146FFF7F3FF00F09F
:1001600009FB00F075F803B4FFF7F2FF03BC00F0E1
:100170007DF8000010480268D2F800D0BDE8F00F0A
:100180000FBC5DF804CB01B05DF804EB01B062B6C2
:10019000704772B62DE9F00F07480168C1F800D02A
:1001A00001B500F0C5FCBDE801400168D1F800D000
:1001B000BDE8F00F62B67047BC08002000F06DB8D3
:1001C0000948804709480047FEE7FEE7FEE7FEE7EB
:1001D000FEE7FEE7FEE7FEE7FEE7FEE70448054927
:1001E000054A064B7047000079060008ED0000083C
:1001F00020090020200F0020200B0020200B0020D1
:10020000704770477047754600F02CF8AE46050001
:100210006946534620F00700854618B020B5FFF721
:10022000DDFFBDE820404FF000064FF000074FF023
:1002300000084FF0000BAC46ACE8C009ACE8C009C0
:10024000ACE8C009ACE8C00921F007018D46704751
:1002500010B50446AFF300802046BDE81040FFF71C
:1002600082BF0000004870470000002001491820AC
:10027000ABBEFEE7260002000246C91C21F00301C6
:10028000D2E900031B1A8B4201D2002070470144BF
:10029000C91D21F00701116070472DE9F34F83B0AC
:1002A00000274FF48074BA4603A821468DF80070E9
:1002B000FFF7E2FF5FEA000801D100F083F8214672
:1002C000404600F070F8060009D04FF0010B45469B
:1002D000C14616F8014B8FB15C2C16D01CE008F11A
:1002E00008004146C8F800000020C8F80400D8F80B
:1002F00000402070012005B0BDE8F08F222C01D015
:10030000272C0FD12746BA462CE03078222807D078
:100310005C2805D0272803D0BC4203D1002721E068
:10032000761C04464CB12FB9202C06D0A4F109004C
:10033000042802D905F8014BCBE74D4502D1BAF1AB
:10034000000F0FD052464946002005F8010B6846C1
:10035000AFF300809DF8000070B14D464FF0000AE9
:100360000BF1010B002CB4D14FEA8B0103A8FFF76E
:1003700083FF040002D004E0A946EFE7002000F06C
:1003800021F800204246C4F8008005E012F8011B65
:1003900011B9401C44F82020AA42F7D3002144F8A8
:1003A00020102146A7E71CB50446CDE900016946A7
:1003B0001520ABBE08B100201CBD20461CBD7047F7
:1003C0007047704710B500F009F8BDE81040AFF372
:1003D0000080002801D0FFF749BF704710B5012801
:1003E00005D0002103A000F021F8012010BD09A1D3
:1003F000F8E7000053494752544D454D3A204F7598
:1004000074206F662068656170206D656D6F72790C
:10041000000000003A2048656170206D656D6F72C4
:100420007920636F727275707465640070B50546EB
:100430000C460A2000E06D1C00F011F835B1287858
:100440000028F8D102E0641C00F009F814B120780B
:100450000028F8D1BDE870400A20AFF3008008B54D
:1004600069468DF800000320ABBE08BD80B540F69C
:10047000C000C2F20000006800F0CCFB40F2144063
:10048000C4F20100016841F00101016080BD00007B
:1004900080B582B0EFF3108072B6019041F218007F
:1004A000C4F20200016841F00501016040F600005D
:1004B000C4F20100016821F001010160016821F02E
:1004C00002010160016841F008010160016821F04A
:1004D0000401016040F60C00C4F20100016841F023
:1004E000010101600820C4F20100016821F00F0140
:1004F000016040F20040C4F20100016841F00101D6
:10050000016040F20840C4F20100016821F00101DD
:10051000016040F20C40C4F20100016841F00101A9
:10052000016006200121009000F002F9009800F01F
:10053000E5F802B080BD000080B500F001F880BD94
:1005400083B000200290019041F20000C4F202004A
:10055000016841F480310160FFE741F20000C4F21C
:100560000200006800F4003001900298013002900F
:10057000FFE7019800210028009107D1FFE70298CA
:10058000B0F5A06018BF01200090FFE70098C007F9
:100590000028E2D1FFE741F20000C4F20200006847
:1005A0008003002803D5FFE70120019002E000202E
:1005B0000190FFE70198012850D1FFE742F20000C7
:1005C000C4F20200016841F010010160016821F0ED
:1005D00007010160016841F00201016041F204007D
:1005E000C4F202000168016001680160016841F421
:1005F00080610160016821F47C110160016841F4AF
:10060000E811016041F20000C4F20200016841F00B
:1006100080710160FFE741F20000C4F2020000684F
:100620008001002801D4FFE7F5E741F20400C4F29D
:100630000200016821F003010160016841F002013C
:100640000160FFE741F20400C4F20200006800F01C
:100650000C00082801D0FFE7F4E700E0FFE703B053
:10066000704700004EF60450CEF20000016841F0E1
:10067000805101607047000080B541F20000C4F273
:100680000200016841F00101016041F20401C4F27D
:1006900002010A680023CFF6FF031A400A600268CD
:1006A0004FF6FF73CFF6F6631A400260026822F439
:1006B00080220260086820F4FE00086041F2080011
:1006C000C4F202004FF41F010160FFF735FF4EF640
:1006D0000850CEF200004FF00061016080BD0000C4
:1006E00080B51020C4F200000021018040F26800B3
:1006F000C2F200000068804780BD000081B0014662
:100700008DF803009DF9030000280FD4FFE79DF941
:10071000030000F01F01012202FA01F140094EF22C
:100720000012CEF2000242F82010FFE701B070473D
:1007300082B002468DF8070000919DF9070000285D
:100740000AD4FFE7009800019DF907104EF200421D
:10075000CEF2000288540BE0009800019DF80710CB
:1007600001F00F014EF61452CEF200028854FFE75A
:1007700002B0704780B586B000200590049000F06C
:10078000EDF840F64550C0F6000040F67151C0F655
:10079000000140F69D52C0F6000200F08DF840F6D0
:1007A0006141C0F60001642203900846114600F042
:1007B00047F840F6D401C2F2000101220290084637
:1007C0001146019200F034FA40F6D800C2F200005F
:1007D000049900F02DFA40F6DC00C2F2000000F0AF
:1007E00021F8019800F0CEF8FFE7FEE780B584B06D
:1007F0000190EFF3108072B60290FFE70198006855
:10080000002808D1FFE762B600F01AFAEFF3108073
:1008100072B60390F2E7019801680139016062B68F
:1008200004B080BD80B582B00190019840F6C0014F
:10083000C2F200010860FFF72BFE02B080BD00008D
:1008400083B00190009140F6D000C2F20000006831
:100850000A2804D0FFE70098002804D1FFE7002011
:100860008DF80B0023E0019840F6D001C2F20001A0
:100870000A6802EB420240F26C03C2F2000343F842
:10088000220000980A6802EB420203EB82025060E9
:10089000009801380A6802EB420203EB8202906082
:1008A00008680130086001208DF80B00FFE79DF813
:1008B0000B0003B07047000080B588B0069005912A
:1008C0000492EFF3108072B6079040F6E000C2F297
:1008D000000000F10C01416000F118010161C061EC
:1008E0000020029000F07CF8069840F2E401C2F289
:1008F0000001C1F888010120019100F071F805980C
:100900000199C1F81803022000F06AF804980199CF
:10091000C1F8A80402980390FFE70398042810DCAC
:10092000FFE7039800EB400040F6E001C2F200014F
:1009300001EB800000218160FFE703980130039004
:10094000EBE740F6BC00C2F2000040F6E001C2F264
:100950000001016062B6012008B080BD80B540F2A0
:100960006000C2F2000041F64011C0F201010160D6
:1009700040F67140C0F600004FF47A71062200F094
:1009800095F880BD80B582B001904EF21000CEF295
:100990000000002101604EF21802CEF20002116048
:1009A000019A40F26003C2F200031B685A43013A05
:1009B0004EF21403CEF200031A604FF0FF320090A3
:1009C0001046FFF7B5FE0098016841F0050101608F
:1009D000016841F002010160FFF7CCFB02B080BD6D
:1009E00081B00090009840F2E401C2F200014FF49F
:1009F000C87200FB021303F5A87300EB400040F639
:100A0000E00CC2F2000C4CF82030009800FB021001
:100A10004FF08073C0F88C31009800FB02104FF04B
:100A2000AA33C0F88431009800FB0210C0F880316E
:100A3000009800FB0210C0F87C31009800FB021007
:100A4000C0F87831009800FB0210C0F874310098AB
:100A500000FB0210C0F87031009800FB0210C0F8D3
:100A60006C31009800FB0210C0F86831009800FB60
:100A70000210C0F86431009800FB0210C0F8603129
:100A8000009800FB0210C0F85C31009800FB0210D7
:100A9000C0F85831009800FB0210C0F8543100989B
:100AA00000FB0210C0F8503101B0704780B586B02D
:100AB0001346049003918DF80B20EFF3108072B66B
:100AC0000590049840F26801C2F20001086041F20A
:100AD0001C00C4F20200016841F0010101602820FD
:100AE000C4F2000047210180039844F24021C0F283
:100AF0000F01B1FBF0F001382C21C4F20001088095
:100B00004FF08040012101800C20C4F200000188D8
:100B100041F0010101809DF80B101C200190009311
:100B2000FFF706FE0198FFF7E9FD06B080BD000063
:100B300080B582B040F6B400C2F20000006840F216
:100B40006401C2F200010968884208D2FFE740F65A
:100B5000B400C2F2000001680131016006E040F615
:100B6000B400C2F2000001210160FFE70020019003
:100B7000FFE70198092832DCFFE740F6B400C2F233
:100B800000000068019901EB410140F26C02C2F2E1
:100B9000000202EB81014968B0FBF1F202FB110097
:100BA000002817D1FFE7019800EB400040F26C01EC
:100BB000C2F2000151F8200000280BD0FFE7019895
:100BC00000EB400040F26C01C2F2000151F820003D
:100BD0008047FFE7FFE7019801300190C9E740F641
:100BE000BC00C2F20000016849680160FFE740F6FE
:100BF000BC00C2F2000000688068002808D0FFE74F
:100C000040F6BC00C2F20000016849680160EEE7EE
:100C100002B080BD82B00090EFF3108072B60190F8
:100C2000009801680131016062B602B070470000AF
:100C300082B00190009100980199086002B070475D
:100C40004EF21800CEF20000002101604EF6045072
:100C5000CEF20000016841F0806101607047000041
:100C600040F6B800C2F2000001680131016070472F
:100C700080B582B000200190FFE7019840F6D001D6
:100C8000C2F200010968884234D2FFE7019800EB04
:100C9000400040F26C01C2F2000101EB800080686C
:100CA000002815D1FFE7019800EB400040F26C01ED
:100CB000C2F2000151F8200000918047019800EB3A
:100CC0004000009901EB80004268013A82600CE02C
:100CD000019800EB400040F26C01C2F2000101EB10
:100CE0008000816801398160FFE7FFE701980130EA
:100CF0000190C2E700200190FFE7019804281FDC63
:100D0000FFE7019800EB400040F6E001C2F200016D
:100D100001EB8000806800280DD0FFE7019800EB10
:100D2000400040F6E001C2F2000101EB8000816862
:100D300001398160FFE7FFE7019801300190DCE7AE
:100D400002B080BD80B5FFE740F6D400C2F20000DB
:100D5000FFF74CFD40F6C400C2F20000016801310B
:100D6000016040F6D800C2F20000FFF753FFEBE746
:100D700080B5FFE740F6D800C2F20000FFF736FD6D
:100D800040F6C800C2F2000001680131016040F67F
:100D9000D400C2F20000FFF73DFFEBE7FFE740F6AB
:100DA000CC00C2F20000016801310160F7E70000E9
:100DB000C00D000800000020200F000028010008DE
:04000005080000ED02
:00000001FF
