:020000040800F2
:10000000400B00205D02000865020008670200083E
:10001000690200086B0200086D0200080000000081
:100020000000000000000000000000006F02000857
:100030007102000800000000730200083B02000883
:1000400077020008770200087702000877020008AC
:10005000770200087702000877020008770200089C
:10006000770200087702000877020008770200088C
:10007000770200087702000877020008770200087C
:1000800077020008770200087702000800000000ED
:1000900000000000000000000000000077020008DF
:1000A000770200087702000877020008770200084C
:1000B000770200087702000877020008770200083C
:1000C000770200087702000877020008770200082C
:1000D000770200087702000877020008000000009D
:1000E000770200087702000877020008000000008D
:1000F000000000000000000000000000770200087F
:10010000000000007702000877020008770200086C
:1001100000000000000000000000000000000000DF
:1001200077020008770200087702000877020008CB
:10013000770200080000000000000000000000003E
:10014000000000000000000000000000770200082E
:10015000770200087702000877020008770200089B
:10016000770200087702000800000000000000008D
:10017000000000000000000000000000000000007F
:1001800000000000770200080000000000000000EE
:10019000770200087702000800F002F800F02EF85D
:1001A0000AA090E8000C82448344AAF10107DA45D2
:1001B00001D100F023F8AFF2090EBAE80F0013F0F6
:1001C000010F18BFFB1A43F001031847D8030000C2
:1001D000E80300000023002400250026103A28BF71
:1001E00078C1FBD8520728BF30C148BF0B607047A9
:1001F0001FB500F0CAF91FBD10B510BD00F051F8D1
:100200001146FFF7F5FF00F0B3F800F06FF803B404
:10021000FFF7F2FF03BC00F077F800000E48026819
:10022000D2F800D0BDE8F00F0FBC5DF804CB01B0F0
:100230005DF804EB01B062B6704772B62DE9F00FBD
:1002400005480168C1F800D049680160D1F800D0C4
:10025000BDE8F00F62B670471405002009488047DA
:1002600009480047FEE7FEE7FEE7FEE7FEE7FEE798
:10027000FEE7FEE7FEE7FEE704480549054A064BB0
:10028000704700001903000899010008400500208C
:10029000400B0020400700204007002070477047B7
:1002A0007047754600F02CF8AE4605006946534687
:1002B00020F00700854618B020B5FFF7DDFFBDE848
:1002C00020404FF000064FF000074FF000084FF0BD
:1002D000000BAC46ACE8C009ACE8C009ACE8C0090A
:1002E000ACE8C00921F007018D46704710B50446FF
:1002F000AFF300802046BDE81040FFF788BF000044
:10030000004870470000002001491820ABBEFEE7FE
:1003100026000200704700004EF68851CEF2000120
:10032000086840F4700008607047000082B08DF8E3
:10033000070000919DF9070000280AD4FFE7009804
:1003400000019DF907104EF20042CEF200028854DF
:100350000BE0009800019DF8071001F00F014EF628
:100360001452CEF200028854FFE702B0704700003A
:1003700080B582B00020019000F04AF840F2515060
:10038000C0F6000040F26551C0F6000140F279521B
:10039000C0F6000200F006F8012000F043F8FFE785
:1003A000FEE7000080B586B005900491039272B616
:1003B00040F22450C2F20000019000F108014160B7
:1003C00000F11001C1604061002000F059F805986B
:1003D00040F26401C2F200010091C1F888010120DD
:1003E000029000F04DF800990498C1F8180302201B
:1003F00000F046F8009B01990298039AC3F8A824DC
:1004000040F21452C2F20002116062B606B080BD22
:1004100040F26001C2F2000141F64010C0F201005A
:100420000860704780B582B001904EF21001CEF2A4
:1004300000010091002008604EF21801CEF2000188
:100440000860019840F26001C2F200010968484367
:1004500001384EF21401CEF2000108604FF0FF3077
:100460000F21FFF763FF0099086840F0050008605E
:10047000086840F002000860FFF7D0FE02B080BDBF
:1004800081B00090DDF800C040F26403C2F20003C6
:100490004FF4C8720CFB023000F5A87040F22451F2
:1004A000C2F2000141F83C00009800FB0231D1F893
:1004B0008C0140F08070C1F88C01009800FB023183
:1004C0004FF0AA30C1F88401009901FB0231C1F854
:1004D0008001009901FB0231C1F87C01009901FB08
:1004E0000231C1F87801009901FB0231C1F87401B1
:1004F000009901FB0231C1F87001009901FB023142
:10050000C1F86C01009901FB0231C1F86801009942
:1005100001FB0231C1F86401009901FB0231C1F80D
:100520006001009901FB0231C1F85C01009901FBF7
:100530000231C1F85801009901FB0231C1F85401A0
:10054000009901FB0231C1F8500101B07047000071
:10055000FFE740F21851C2F200010868013008605C
:10056000F7E70000FFE740F21C51C2F20001086803
:1005700001300860F7E70000FFE740F22051C2F2C7
:100580000001086801300860F7E7F1EE100A4FF645
:10059000FF71C0F2C03120EA010040F04070E1EE8E
:1005A000100A7047B405000800000020400B00004E
:0405B000D40100086A
:040000050800019955
:00000001FF
