:020000040800F2
:10000000600600200D020008150200081702000813
:10001000190200081B0200081D0200080000000071
:100020000000000000000000000000001F020008A7
:100030002102000800000000230200082502000839
:1000400027020008270200082702000827020008EC
:1000500027020008270200082702000827020008DC
:1000600027020008270200082702000827020008CC
:1000700027020008270200082702000827020008BC
:1000800027020008270200082702000827020008AC
:10009000270200082702000827020008270200089C
:1000A000270200082702000827020008270200088C
:1000B000270200082702000827020008270200087C
:1000C000270200082702000827020008270200086C
:1000D000270200082702000827020008270200085C
:1000E000270200082702000827020008270200084C
:1000F000270200082702000827020008270200083C
:10010000270200082702000827020008270200082B
:10011000270200082702000827020008270200081B
:10012000270200082702000827020008270200080B
:1001300027020008270200082702000827020008FB
:1001400027020008270200082702000827020008EB
:1001500027020008270200082702000827020008DB
:1001600027020008270200082702000827020008CB
:1001700027020008270200082702000800000000EC
:10018000270200082702000800F002F800F02EF80D
:100190000AA090E8000C82448344AAF10107DA45E2
:1001A00001D100F023F8AFF2090EBAE80F0013F006
:1001B000010F18BFFB1A43F001031847D0030000DA
:1001C000E00300000023002400250026103A28BF89
:1001D00078C1FBD8520728BF30C148BF0B607047B9
:1001E0001FB500F0C6F91FBD10B510BD00F031F805
:1001F0001146FFF7F5FF00F0A9F900F04FF803B43E
:10020000FFF7F2FF03BC00F057F8000009488047F1
:1002100009480047FEE7FEE7FEE7FEE7FEE7FEE7E8
:10022000FEE7FEE7FEE7FEE704480549054A064B00
:1002300070470000390500088901000860000020AF
:1002400060060020600200206002002070477047B6
:100250007047754600F02CF8AE46050069465346D7
:1002600020F00700854618B020B5FFF7DDFFBDE898
:1002700020404FF000064FF000074FF000084FF00D
:10028000000BAC46ACE8C009ACE8C009ACE8C0095A
:10029000ACE8C00921F007018D46704710B504464F
:1002A000AFF300802046BDE81040FFF7A8BF000074
:1002B000004870470000002001491820ABBEFEE74F
:1002C0002600020070470000F0B54179032911D8DB
:1002D0000279036852004FF0030CD3F800E00CFAE7
:1002E00002FC01FA02F22EEA0C0CD2B242EA0C0233
:1002F0001A605EE043F608470529C4F2010715D0ED
:10030000042924D143F60C4CC4F2010CDCF8003073
:1003100023F01003CCF800304FF0010CD7F800E0C8
:100320000CFA01F343EA0E033B6010E03B6843F62E
:100330000C4E23F020033B60C4F2010E4FF0010C81
:10034000DEF800400CFA01F32343CEF8003043F608
:100350004403C4F202031C6842F6000544F48044DE
:100360001C600368C4F2020503F13E4404F1FF740B
:100370004FEAB4220026AB4208BF0A260A2A4FF0F1
:100380000C0238BF4FEAB42602EA810206FA02F2F2
:1003900001F0FC034FF600463B44CFF6FF769A513E
:1003A0000279012357F8086C03FA02F2324347F846
:1003B000082C027900685200032746688568974038
:1003C000BD43856001FA02F38568DBB21D43856099
:1003D000C568022925EA0707C760C76847EA030717
:1003E000C7604FF0010707FA02F226EA020242EA6A
:1003F0000302426018BFF0BD016A21F4706101621E
:10040000F0BD000010B584B040F20040C4F202001C
:1004100001904FF4A060ADF80C0040F20D20C0F246
:10042000020001AC02902046FFF74EFF0F208DF82E
:1004300008002046FFF748FF0C208DF808002046F2
:10044000FFF742FF04B010BD80B584B001208DF8E5
:10045000080000218DF80E0001A8ADF80A108DF8F3
:100460000C1000F003F804B080BD000010B5044685
:100470000068012100F01EF86179207903294FEA14
:10048000800004D0022908BF00F5004001E000F51B
:100490008060A179E27940EAC100217A40EAC22075
:1004A000627A40EA4100A17A1043226840EA412082
:1004B000106010BD012921D10138032888BF704781
:1004C000DFE800F0021D0B1443F64000C4F2020006
:1004D000416841F480514160704743F64000C4F2E6
:1004E0000200016841F400410160704743F640009A
:1004F000C4F20200016841F400510160704743F604
:100500004000C4F20200016841F48041016070477C
:100510000268012922F0400308BF42F04003036053
:10052000704700000268012922F4807308BF42F47A
:1005300080730360704700004EF68850CEF20000D2
:10054000016841F4700101607047000010B5FFF7C9
:1005500059FFFFF779FF43F60004C4F20004204678
:100560000121FFF7DFFF20460121FFF7D1FF002027
:1005700010BDF1EE100A4FF6FF71C0F2C03120EA53
:10058000010040F04070E1EE100A70479C05000841
:0C0590000000002060060000C40100080C
:040000050800020DE0
:00000001FF
